:100000000C9434000C943E000C943E000C943E0082
:100010000C943E000C943E000C943E000C943E0068
:100020000C943E000C943E000C943E000C943E0058
:100030000C943E000C943E000C943E000C943E0048
:100040000C943E000C943E000C943E000C943E0038
:100050000C943E000C943E000C943E000C943E0028
:100060000C943E000C943E0011241FBECFEFD8E04C
:10007000DEBFCDBF0E94BA000C94D0020C940000E9
:10008000529838985A9A0E949D000E948A000C94B7
:100090004900ECE7F0E080818064808380818F7785
:1000A00080838081807F8083EAE7F0E080818068C0
:1000B0008083808187608083089590917C00907F09
:1000C0008770982B90937C0080917A008064809355
:1000D0007A0080917A0086FDFCCF80917800909123
:1000E00079000895BC0190E080E00E94D50120E0F5
:1000F00030E04AEF54E40E94630220E030EC4FE726
:1001000054E40E94340120E030E04AEF53E40E94BE
:10011000C80008951092C50087E68093C40088E166
:100120008093C10086E08093C20008959091C00042
:1001300095FFFCCF8093C6000895219AE0E8F0E097
:10014000808180688083808182618083E1E8F0E043
:100150008081826180838081826080838FE39CE9DB
:1001600090938700809386000895909389008093F0
:10017000880008950E94400080E00E945D000E9477
:1001800072000E94A601CB010E94B500F5CF505825
:10019000BB27AA270E94DF000C9429020E941B02A1
:1001A00038F00E94220220F039F49F3F19F426F41F
:1001B0000C9418020EF4E095E7FB0C941202E92F60
:1001C0000E943A0258F3BA1762077307840795072B
:1001D00020F079F4A6F50C945C020EF4E0950B2E59
:1001E000BA2FA02D0B01B90190010C01CA01A00189
:1001F0001124FF27591B99F0593F50F4503E68F1E4
:100200001A16F040A22F232F342F4427585FF3CF24
:10021000469537952795A795F0405395C9F77EF4F5
:100220001F16BA0B620B730B840BBAF09150A1F03E
:10023000FF0FBB1F661F771F881FC2F70EC0BA0FC4
:10024000621F731F841F48F4879577956795B7954C
:10025000F7959E3F08F0B0CF9395880F08F0992747
:10026000EE0F9795879508950E9448010C942902F6
:100270000E94220258F00E941B0240F029F45F3FC6
:1002800029F00C94120251110C945D020C94180286
:100290000E943A0268F39923B1F3552391F3951B19
:1002A000550BBB27AA2762177307840738F09F5F97
:1002B0005F4F220F331F441FAA1FA9F335D00E2E04
:1002C0003AF0E0E832D091505040E695001CCAF771
:1002D0002BD0FE2F29D0660F771F881FBB1F261734
:1002E00037074807AB07B0E809F0BB0B802DBF010B
:1002F000FF2793585F4F3AF09E3F510578F00C94DA
:1003000012020C945D025F3FE4F3983ED4F38695AD
:1003100077956795B795F7959F5FC9F7880F911DFA
:100320009695879597F90895E1E0660F771F881FE6
:10033000BB1F621773078407BA0720F0621B730B99
:10034000840BBA0BEE1F88F7E09508950E944202D5
:1003500088F09F5798F0B92F9927B751B0F0E1F086
:10036000660F771F881F991F1AF0BA95C9F714C036
:10037000B13091F00E945C02B1E008950C945C02EF
:10038000672F782F8827B85F39F0B93FCCF386956F
:1003900077956795B395D9F73EF4909580957095CC
:1003A00061957F4F8F4F9F4F0895E89409C097FB49
:1003B0003EF490958095709561957F4F8F4F9F4F3C
:1003C0009923A9F0F92F96E9BB279395F695879580
:1003D00077956795B795F111F8CFFAF4BB0F11F443
:1003E00060FF1BC06F5F7F4F8F4F9F4F16C08823EA
:1003F00011F096E911C0772321F09EE8872F762F20
:1004000005C0662371F096E8862F70E060E02AF060
:100410009A95660F771F881FDAF7880F969587954C
:1004200097F9089597F99F6780E870E060E0089574
:100430009FEF80EC089500240A94161617061806FC
:100440000906089500240A941216130614060506D8
:100450000895092E0394000C11F4882352F0BB0F69
:1004600040F4BF2B11F460FF04C06F5F7F4F8F4FCC
:100470009F4F089557FD9058440F551F59F05F3F07
:1004800071F04795880F97FB991F61F09F3F79F0B6
:1004900087950895121613061406551FF2CF469538
:1004A000F1DF08C0161617061806991FF1CF8695BA
:1004B0007105610508940895E894BB27662777279E
:1004C000CB0197F908950E9476020C9429020E94AC
:1004D0001B0238F00E94220220F0952311F00C94A8
:1004E00012020C94180211240C945D020E943A022C
:1004F00070F3959FC1F3950F50E0551F629FF00177
:10050000729FBB27F00DB11D639FAA27F00DB11D8F
:10051000AA1F649F6627B00DA11D661F829F222718
:10052000B00DA11D621F739FB00DA11D621F839F9F
:10053000A00D611D221F749F3327A00D611D231F75
:10054000849F600D211D822F762F6A2F11249F57C3
:1005500050409AF0F1F088234AF0EE0FFF1FBB1FC6
:10056000661F771F881F91505040A9F79E3F510585
:1005700080F00C9412020C945D025F3FE4F3983E0D
:10058000D4F3869577956795B795F795E7959F5F2F
:10059000C1F7FE2B880F911D9695879597F90895C1
:0405A000F894FFCFFD
:00000001FF
